:03000000021634B1
:0C163400787FE4F6D8FD758149021309A7
:1014180074656D7065726174757265203D2025363E
:101428002E32662C6C69676874203D2025362E3272
:10143800662C736D6F6B65203D2025362E32660D48
:021448000A0098
:101309001215491215241216401214FC12124C8F90
:10131900498E488D478C461213668F418E408D3F0A
:101329008C3E12158C8F458E448D438C427BFF7AFF
:1013390014791885492885482785472685462585AE
:10134900412C85402B853F2A853E298F308E2F8D54
:0D1359002E8C2D120E3F7FE812165280AF31
:09164000C290C291C292C2942230
:1015A800C2947F02121652D2947F14121652C29419
:0615B8003096FDD29522E1
:10158C001215A8AF807E00C295AD077C00E4120B4B
:0B159C001CE4FBFA794C7842120A01B3
:0115A7002221
:05165F007F010215E708
:1015D300D2A0121659D2A1121659C2A0121659C27C
:0415E300A1021659F2
:0F15F900C2A0121659D2A1121659D2A002165929
:10144A008F24E4F523E52425E0F52492A012165909
:10145A00D2A1121659C2A11216590523E523C39423
:10146A000840E2C2A0121659D2A1121659C2A1020C
:02147A00165901
:10147C00E4F524D2A0121659E4F523E52425E0F571
:10148C0024D2A1121659A2A0E4334224C2A11216EE
:0C149C00590523E523C3940840E1AF2468
:0114A8002221
:0F160800C2A0121659D2A1121659C2A102165928
:0F161700D2A0121659D2A1121659C2A102165909
:1015E7008F221215D37F4612144AAF2212144A02D1
:0215F70015F9E4
:1013E3001215D37F4712144AE4F52212147C7412A7
:1013F3002522F8A607E522B4010512161780031269
:1014030016080522E522C3940240E01215F97F0570
:051413007E0002156ED1
:10136600C2AF12165F7F011215E77F101215E77FD5
:10137600B47E0012156E1213E3750C0085120DE58E
:101386000DFE7C00E42513F50DEC3EF50CFCAD0DD1
:10139600120B1C7B9A7A997999783F120A01D2AF7F
:0113A6002224
:07165200AE071FEE70FA2243
:1015BE00AD07AF051DEF600C7FF51216527FF512C9
:0515CE00165280EE2220
:1014FC00C200D2A27F05121652C2A27FC812165287
:10150C007FC8121652D2A27F32121652A2A2920099
:07151C007F19121652A20014
:0115230022A5
:0214A9008F2B87
:1014AB00E4F52C752C08C2A2E52B1392A27F19121E
:1014BB001652D2A2E52BC313F52B152CE52CD39486
:0814CB000050E37F19021652E4
:1014D300E4F52BF52C752B08C2A2E52CC313F52CD0
:1014E300D2A230A203432C807F19121652152BE58A
:0814F3002BD3940050E2AF2C52
:0114FB0022CE
:1013A700E4F52AFFFEFDFC1214FC7FCC1214A97F82
:1013B700441214A97F0A1215BE1214FC7FCC121412
:1013C700A97FBE1214A91214D38F2A1214D3EF7F48
:0B13D70000FEEF252AFDE43EFEAF05FE
:0113E20022E8
:10124C00C2AF1213A7AC06AD07E4120B1C8F258E90
:10125C00248D238C227F007ED87D6F7C47AB25AA02
:10126C0024A923A822120A9E606E406CAF25AE24DE
:10127C00AD23AC227B007AD8796F78471208038FA4
:10128C00258E248D238C22E4FFFE7D807C3DAB25B6
:10129C00AA24A923A8221208F88F298E288D278C1E
:1012AC0026E4FFFE7DC87C42AB29AA28A927A826E4
:1012BC001208F8E4FBFAF9783F1208078F258E2400
:1012CC008D238C22E4FBFA798078BF1208F88F25E5
:1012DC008E248D238C22801AE4FFFE7D807C3DAB16
:1012EC0025AA24A923A8221208F88F298E288D2735
:0C12FC008C26D2AFAF25AE24AD23AC226F
:0113080022C2
:10152400758921758DF3758BF3758CFF758AFEE4CF
:10153400F587D28ED28CC28DD2A9D29CC29FD29E64
:05154400D2AFD2AC2281
:0616590000000000002269
:10156E00D3EF9400EE940040147D6E7C00ED1D7060
:0D157E00011CED4C70F7EF1F70E61E80E3BE
:01158B00223D
:03000B0002164991
:09164900758CFF758AFEB2973220
:0E162600C2AC8F993099FDC299D2AC7F0022E0
:10154900758921758DF3758BF3758CFF758AFEE4AA
:10155900F587D28ED28CC28DD2A9D29CC29FD29E3F
:05156900D2AFD2AC225C
:10080000020B8AE86480F8E933E83360110460F091
:10081000ED33EC337009E8FCE9FDEAFEEBFF22045E
:1008200060DED3EB9FEA9EE99DE8C2E78CF0C2F759
:1008300095F0400CE8CCF8E9CDF9EACEFAEBCFFB25
:10084000120B5585D0F05804700320D5B3E804701E
:10085000075002B2D5020B9492D5EC0460F7E4CCB9
:10086000C0E0C398F8603B94186008400DD0E0FBEE
:10087000020B6CE4FBFAC9FC8028E830E406E4C90A
:10088000FBE4CAFCE830E305E4C9CACBFCE8540742
:100890006010F8C3E913F9EA13FAEB13FBEC13FC4D
:1008A000D8F130F52FC3E49CFCEF9BFFEE9AFEEDF0
:1008B00099FDD0E0FBEF4E4D4C701222DB03020B92
:1008C00091EC2CFCEF33FFEE33FEED33FDED30E722
:1008D000EB020B6CEF2BFFEE3AFEED39FDD0E0FBA7
:1008E00050130BBB0003020B94ED13FDEE13FEEF50
:0808F00013FFEC13FC020B6C7A
:1008F800EC4D6011E8497017ED33EC3304600DE4FA
:10090800FCFFFEFD22E933E8330470F8020B8A127B
:100918000B5558046009E4CC24815006285009027C
:100928000B94284003020B91C0E0EB4A7044B98055
:1009380006D0E0FB020B80EF4E701CBD8008EBFF79
:10094800EAFEE9FD80EBE98DF0A4FEE5F00209E19D
:10095800E9CDF9EAFEEBFFEF89F0A4FCE5F0CE89DA
:10096800F0A42EFFE435F0CD89F0A42DFEE435F097
:100978008067EF4E7005BD80D780C3EF8BF0A4ACC5
:10098800F0EE8BF0A42CFCE435F0F8EF8AF0A42C00
:10099800E5F038FCE433CB8DF0A42CFCE5F03BF813
:1009A800EE8AF0A42CFCE5F038F8E433CF89F0A403
:1009B8002CFCE5F038CF3400CE89F0A42FFFE5F009
:1009C8003EFEE433C98DF0A42EFEE5F039CD8AF061
:1009D800A42FFFE5F03EFEE43DFD33D0E0FB5007D9
:1009E8000BBB000F020B94EC2CFCEF33FFEE33FE35
:0609F800ED33FD020B6C63
:1009FE00020B94EC5D046005E859047003020B8A47
:100A0E00120B55580460F6EC4860F2EC7004FDFED3
:100A1E00FF22C860DB2481C85009C39860025006CB
:100A2E00020B919850CAF582E9294B4A7005AB82A8
:100A3E00020B8075F0007C1A7880C3EF9BEE9AED66
:100A4E0099400DC3EF9BFFEE9AFEED99FDE842F043
:100A5E00DC23ACF0D0E0FFD0E0FED0E0FDAB822096
:100A6E00E7101BEB60BAEC2CFCEF33FFEE33FEED20
:100A7E0033FD020B6CE803F830E705C0F075F000AB
:100A8E00EF2FFFEE33FEED33FD40B830E7C280AA04
:100A9E0074F8CC6480CCC86480C8F58204604FC3FF
:100AAE00EB9FF5F0EA9E42F0E99D42F0E89C45F09E
:100ABE00603C501DE5825FFFE582D313CB5BCBF428
:100ACE002B5582FB50280ABA002409B90020088051
:100ADE001DE5825BFBE582D313CF5FCFF4C3132FEB
:100AEE005582FF50090EBE00050DBD00010CC3EB73
:100AFE009FF5F0EA9E42F0E99D42F0E89C45F060D9
:090B0E0007CC4820E701B3EC22FA
:100B170075F020800E75F010800575F0087D007E59
:100B2700007F003392D530D503120D99EC33401076
:100B3700EF33FFEE33FEED33FDEC33FCD5F0ED2262
:0E0B4700E5F0247EA2D513CC92E7CDCEFF229E
:100DDD00E5392425F8E605392278223007027825F1
:100DED00E475F001120DA7020D412000EB7F2ED20C
:100DFD00008018EF540F2490D43440D4FF30040BEE
:100E0D00EF24BFB41A0050032461FFE53A600215C8
:100E1D003A053DE53D7002053C30070D7822E4753D
:100E2D00F001120DA7EF020D870216267403D207EB
:100E3D008003E4C207F5398B228A238924E4F53A2D
:100E4D00F53CF53DE53A60077F20120E1880F575EB
:100E5D003BFFC201C200C202C203C205C206C208E4
:100E6D00120DE6FF700D3007057F00120E29AF3D04
:100E7D00AE3C22B4255FC2D5C204120DE6FF24D0CC
:100E8D00B40A00501A75F00A783A30D50508B6FF45
:100E9D000106C6A426F620D5047002D20380D924FB
:100EAD00CFB41A00EF5004C2E5D204021116D201DC
:100EBD0080C6D20080C0D20280BCD2D580BAD20505
:100ECD0080B47F20120E182002077401B53A00403D
:100EDD00F1120DDDFF120E18020E51D208D206804E
:100EED0095120DDDFB120DDDFA120DDDF94A4B7079
:100EFD0006790D7A127BFF20022EE53A602A7E00DC
:100F0D008E82758300120D5A60060EEE653B70F0F1
:100F1D00C2D5EBC0E0EAC0E0E9C0E0EE121176D038
:100F2D00E0F9D0E0FAD0E0FB120D41FF60AAEBC072
:100F3D00E0EAC0E0E9C0E0120E18D0E02401F9D0DB
:100F4D00E03400FAD0E0FBE53B0460DCD53BD98012
:100F5D0087D20280A212115960F7E53B700104128D
:100F6D000B9FA93B600DE53B600914F53B12120088
:100F7D00EF60F3EA30E702F404C3995077EAF42501
:100F8D003B0430E701E404F53B800D12115960C1BB
:100F9D00EA053B253B120B9FEA7838F630E701E472
:100FAD00253B04D53B0420050114121176E4C0E065
:100FBD001212007838E6601320E70714F6120E00BF
:100FCD00802204F6D0E014C0E07F00120E00E53B55
:100FDD006007120DF7153B800B300503120DF7D08E
:100FED00E0020E51D0E00480C512115960A0E53B1E
:100FFD0004120B9F7838EAF6E53B200502600104E8
:05100D0024041211761D
:1010120074FF04C0E0121200120E00E53B2005022C
:101022006003120DF7D0E0B53BE87F45120E0A7857
:1010320038E67F2B30E7047F2DF404C0E0120E184F
:10104200D0E075F00A84C0F0120E01D0E0120E0159
:10105200020E51791080027908C206C2088008D2B5
:10106200D5790A8004790AC2D5E53B047002F53BC2
:10107200E4FAFDFEFF120DDDFC7B08200113120DC8
:10108200DDFD7B1030000A120DDDFE120DDDFF7B4F
:1010920020EC3382D592D55013C3E43000069FFF73
:1010A200E49EFEE42001039DFDE49CFCE4CBF8C237
:1010B20001EC700CCFCECDCCE824F8F870F3801799
:1010C200C3EF33FFEE33FEED33FDEC33FCEB33FBCA
:1010D200994002FB0FD8E9EB300105F8D0E0C44893
:1010E200B201C0E00AEC4D4E4F78207B0070C2EA9C
:1010F200B53B0040BCC0E0121178D0F0D0E0200136
:1011020004C4C0E0C4B201C0F0120E01D0F0D5F0A8
:10111200EB020E51120DB70EEE531055580EBF4C86
:101122000EBB4210594F1061441061490ED4431056
:1011320067550F98460FF6450F6247122D500EC3A2
:101142002D0EC72E0EEA2B0ECB230EE82012162AE6
:101152000E834800000EE2E53BB4FF03753B061226
:101162000DDDFC120DDDFD120DDDFE120DDDFF7831
:1011720031020BCE790AA2D5200314300509B91029
:10118200020404B9080104A2D52006025001042079
:1011920002689202B53A005034C0E07F2030031951
:1011A2007F30A20272067205500F1211CFC202C224
:1011B20006C205C2087F30800F300503E9C0E01285
:1011C2000E18300503D0E0F9D0E0B53ACC3005175F
:1011D2007F30B9100C120E187F583004077F7880C8
:1011E20003B90803120E183002057F2D020E187F74
:1011F200202008F87F2B2006F322920280CF7F0066
:10120200B4070050052431F8E6FF22286E756C6C95
:101212002900D201120DDD3001F8C201783A30D531
:101222000108F6020E832D50434958120DDD2403A6
:10123200B405004001E490122893120E09743A1288
:0A1242000E09D203753A040210559C
:100B5500E9D2E7C933E833F892D5EDD2E7CD33ECE6
:070B650033FC5002B2D5225F
:100B6C00EC30E7100FBF000C0EBE00080DBD0004EA
:100B7C000BEB6014A2D5EB13FCED92E7FD2274FF96
:100B8C00FCFDFEFF22E480F8A2D574FF13FC7D80EF
:030B9C00E480EF03
:100B9F00F920E72824F950037907E4F42402FB181D
:100BAF00DBFDE624FB5014E9600DE4F618E604F6CD
:0F0BBF00B40A08E4F6D9F57401F60A22C2D52269
:100BCE00ED33EC3392D5FA602AB4FF33EDC2E77BF6
:100BDE00FF60067A0B79F3E4227A0B79FC20D504B8
:100BEE007A0B79F7224E614E002B494E46002D4965
:100BFE004E4600E47A08F608DAFC7B00740722E819
:100C0E00C0E0ECC0E0EDC0E0EEC0E0EFC0E0EA75A1
:100C1E00F010A4CAABF075F04DA42BFBE435F0FC3C
:100C2E00EA2410FAEB34C5FBEC34D9FCEDC2E7FF35
:100C3E0075F056A4F42411C5F0F434C58FF0A42A2F
:100C4E00E5F03BE43CF620E714120D01D0E0FFD0B6
:100C5E00E0FED0E0FDD0E0FC120A018014F4041294
:100C6E000D01D0E0FFD0E0FED0E0FDD0E0FC120898
:100C7E00F8D0E0F8E6FAEDD2E7CD33EC332482FB80
:100C8E00E4C3CF33CFCE33CECD33CD33DBF37B07BF
:100C9E0075F00A846004F6081B0AE5F0F6088FF07A
:100CAE00740AA4FFACF08EF0740AA42CFEACF050C3
:100CBE00010C8DF0740AA42CFDE435F0F608DBDE91
:030CCE0074072286
:100CD1003F8000004120000042C80000447A00002B
:100CE100461C400047C35000497424004B189680AD
:100CF1004CBEBC205A0E1BCA6753C21C749DC5AEA4
:100D0100FB60065407601C2323120D2FEB5438603F
:100D110009120D1B120D2A1208F8ECF8EDF9EEFA82
:100D2100EFCB22EB120D2A80F1543803241C900CD6
:100D3100D1FE93FC0EEE93FD0EEE930ECE93FF22A9
:100D4100BB010689828A83E0225002E722BBFE02B0
:090D5100E32289828A83E49322E3
:100D5A00BB010CE58229F582E5833AF583E022504E
:100D6A0006E92582F8E622BBFE06E92582F8E22298
:0D0D7A00E58229F582E5833AF583E49322B2
:100D8700BB010689828A83F0225002F722BBFE014B
:020D9700F32245
:0E0D9900C3E49FFFE49EFEE49DFDE49CFC226B
:100DA700FAE6FB0808E6F925F0F618E6CA3AF6224D
:100DB700D083D082F8E4937012740193700DA3A3CB
:100DC70093F8740193F5828883E4737402936860DF
:060DD700EFA3A3A380DFDF
:00000001FF
